{
  "_format": "hh-sol-artifact-1",
  "contractName": "ProofPayEscrow",
  "sourceName": "contracts/ProofPayEscrow.sol",
  "abi": [
    {
      "inputs": [
        {
          "internalType": "address",
          "name": "_coordinator",
          "type": "address"
        }
      ],
      "stateMutability": "nonpayable",
      "type": "constructor"
    },
    {
      "inputs": [],
      "name": "AlreadySettled",
      "type": "error"
    },
    {
      "inputs": [],
      "name": "JobAlreadyExists",
      "type": "error"
    },
    {
      "inputs": [],
      "name": "JobNotFound",
      "type": "error"
    },
    {
      "inputs": [],
      "name": "MustSendETH",
      "type": "error"
    },
    {
      "inputs": [],
      "name": "NoOperators",
      "type": "error"
    },
    {
      "inputs": [],
      "name": "NotCoordinator",
      "type": "error"
    },
    {
      "anonymous": false,
      "inputs": [
        {
          "indexed": true,
          "internalType": "string",
          "name": "jobId",
          "type": "string"
        },
        {
          "indexed": false,
          "internalType": "bool",
          "name": "verified",
          "type": "bool"
        }
      ],
      "name": "JobSettled",
      "type": "event"
    },
    {
      "anonymous": false,
      "inputs": [
        {
          "indexed": true,
          "internalType": "string",
          "name": "jobId",
          "type": "string"
        },
        {
          "indexed": true,
          "internalType": "address",
          "name": "submitter",
          "type": "address"
        },
        {
          "indexed": false,
          "internalType": "uint256",
          "name": "amount",
          "type": "uint256"
        }
      ],
      "name": "JobSubmitted",
      "type": "event"
    },
    {
      "inputs": [],
      "name": "coordinator",
      "outputs": [
        {
          "internalType": "address",
          "name": "",
          "type": "address"
        }
      ],
      "stateMutability": "view",
      "type": "function"
    },
    {
      "inputs": [
        {
          "internalType": "string",
          "name": "jobId",
          "type": "string"
        }
      ],
      "name": "getJob",
      "outputs": [
        {
          "internalType": "address",
          "name": "submitter",
          "type": "address"
        },
        {
          "internalType": "uint256",
          "name": "amount",
          "type": "uint256"
        },
        {
          "internalType": "address[]",
          "name": "operators",
          "type": "address[]"
        },
        {
          "internalType": "bool",
          "name": "settled",
          "type": "bool"
        }
      ],
      "stateMutability": "view",
      "type": "function"
    },
    {
      "inputs": [
        {
          "internalType": "string",
          "name": "jobId",
          "type": "string"
        },
        {
          "internalType": "bool",
          "name": "verified",
          "type": "bool"
        }
      ],
      "name": "settleJob",
      "outputs": [],
      "stateMutability": "nonpayable",
      "type": "function"
    },
    {
      "inputs": [
        {
          "internalType": "string",
          "name": "jobId",
          "type": "string"
        },
        {
          "internalType": "address[]",
          "name": "operators",
          "type": "address[]"
        }
      ],
      "name": "submitJob",
      "outputs": [],
      "stateMutability": "payable",
      "type": "function"
    }
  ],
  "bytecode": "0x60a060405234801561001057600080fd5b50604051610a82380380610a8283398101604081905261002f91610040565b6001600160a01b0316608052610070565b60006020828403121561005257600080fd5b81516001600160a01b038116811461006957600080fd5b9392505050565b6080516109f1610091600039600081816056015261040701526109f16000f3fe60806040526004361061003f5760003560e01c80630a0090971461004457806350d493001461009557806377e32407146100aa578063fdd06331146100da575b600080fd5b34801561005057600080fd5b506100787f000000000000000000000000000000000000000000000000000000000000000081565b6040516001600160a01b0390911681526020015b60405180910390f35b6100a86100a3366004610728565b6100fa565b005b3480156100b657600080fd5b506100ca6100c53660046107c2565b610345565b60405161008c9493929190610804565b3480156100e657600080fd5b506100a86100f5366004610872565b6103fc565b3460000361011b5760405163d73ab2e160e01b815260040160405180910390fd5b60006001600160a01b0316600085856040516101389291906108ce565b908152604051908190036020019020546001600160a01b03161461016f57604051633b9d9a8d60e21b815260040160405180910390fd5b60008190036101915760405163ddf9d24560e01b815260040160405180910390fd5b60008167ffffffffffffffff8111156101ac576101ac6108de565b6040519080825280602002602001820160405280156101d5578160200160208202803683370190505b50905060005b82811015610246578383828181106101f5576101f56108f4565b905060200201602081019061020a919061090a565b82828151811061021c5761021c6108f4565b6001600160a01b03909216602092830291909101909101528061023e81610950565b9150506101db565b506040518060800160405280336001600160a01b0316815260200134815260200182815260200160001515815250600086866040516102869291906108ce565b9081526040805160209281900383019020835181546001600160a01b0319166001600160a01b0390911617815583830151600182015590830151805191926102d692600285019290910190610665565b50606091909101516003909101805460ff1916911515919091179055604051339061030490879087906108ce565b604051908190038120348252907f970186a69762ed696868e9be426d75f0ccd984f8bdad04418d0a7cb3ec4266509060200160405180910390a35050505050565b60008060606000806000878760405161035f9291906108ce565b9081526040805160209281900383018120805460018201546003830154600284018054808902870189019097528686529397506001600160a01b03909216959094929360ff9092169284918301828280156103e357602002820191906000526020600020905b81546001600160a01b031681526001909101906020018083116103c5575b5050505050915094509450945094505092959194509250565b336001600160a01b037f0000000000000000000000000000000000000000000000000000000000000000161461044557604051634f6429f360e11b815260040160405180910390fd5b60008084846040516104589291906108ce565b90815260405190819003602001902080549091506001600160a01b03166104925760405163c0a8563160e01b815260040160405180910390fd5b600381015460ff16156104b75760405162560ff960e81b815260040160405180910390fd5b60038101805460ff1916600190811790915581015482156105d757600282015460006104e38284610969565b905060006104f1838361098b565b6104fb90856109a8565b905060005b838110156105705785600201818154811061051d5761051d6108f4565b60009182526020822001546040516001600160a01b039091169185156108fc02918691818181858888f1935050505015801561055d573d6000803e3d6000fd5b508061056881610950565b915050610500565b5080156105cf578460020160008154811061058d5761058d6108f4565b60009182526020822001546040516001600160a01b039091169183156108fc02918491818181858888f193505050501580156105cd573d6000803e3d6000fd5b505b505050610612565b81546040516001600160a01b039091169082156108fc029083906000818181858888f19350505050158015610610573d6000803e3d6000fd5b505b84846040516106229291906108ce565b6040519081900381208415158252907fc4ff82bd2a571ad30478c66498302b93df0379018c35da0b6018ae556c462ce29060200160405180910390a25050505050565b8280548282559060005260206000209081019282156106ba579160200282015b828111156106ba57825182546001600160a01b0319166001600160a01b03909116178255602090920191600190910190610685565b506106c69291506106ca565b5090565b5b808211156106c657600081556001016106cb565b60008083601f8401126106f157600080fd5b50813567ffffffffffffffff81111561070957600080fd5b60208301915083602082850101111561072157600080fd5b9250929050565b6000806000806040858703121561073e57600080fd5b843567ffffffffffffffff8082111561075657600080fd5b610762888389016106df565b9096509450602087013591508082111561077b57600080fd5b818701915087601f83011261078f57600080fd5b81358181111561079e57600080fd5b8860208260051b85010111156107b357600080fd5b95989497505060200194505050565b600080602083850312156107d557600080fd5b823567ffffffffffffffff8111156107ec57600080fd5b6107f8858286016106df565b90969095509350505050565b6001600160a01b0385811682526020808301869052608060408401819052855190840181905260009286830192909160a0860190855b8181101561085857855185168352948301949183019160010161083a565b505080945050505050821515606083015295945050505050565b60008060006040848603121561088757600080fd5b833567ffffffffffffffff81111561089e57600080fd5b6108aa868287016106df565b909450925050602084013580151581146108c357600080fd5b809150509250925092565b8183823760009101908152919050565b634e487b7160e01b600052604160045260246000fd5b634e487b7160e01b600052603260045260246000fd5b60006020828403121561091c57600080fd5b81356001600160a01b038116811461093357600080fd5b9392505050565b634e487b7160e01b600052601160045260246000fd5b6000600182016109625761096261093a565b5060010190565b60008261098657634e487b7160e01b600052601260045260246000fd5b500490565b80820281158282048414176109a2576109a261093a565b92915050565b818103818111156109a2576109a261093a56fea26469706673582212204b65ffb86e5d810361d5d6e66c75238ecc7e1bfe4b3cf430742af6b67dd626b564736f6c63430008140033",
  "linkReferences": {},
  "deployedLinkReferences": {}
}